{
  "_format": "hh-sol-artifact-1",
  "contractName": "AddLockTokenLock",
  "sourceName": "contracts/AddLockTokenLock.sol",
  "abi": [
    {
      "inputs": [
        {
          "internalType": "contract IERC20",
          "name": "token_",
          "type": "address"
        },
        {
          "internalType": "uint256",
          "name": "startTime_",
          "type": "uint256"
        },
        {
          "internalType": "uint256",
          "name": "vestingPeriod_",
          "type": "uint256"
        },
        {
          "internalType": "address",
          "name": "manager_",
          "type": "address"
        },
        {
          "internalType": "address[]",
          "name": "wallets_",
          "type": "address[]"
        },
        {
          "internalType": "uint128[]",
          "name": "amounts_",
          "type": "uint128[]"
        }
      ],
      "stateMutability": "nonpayable",
      "type": "constructor"
    },
    {
      "anonymous": false,
      "inputs": [],
      "name": "LogFunded",
      "type": "event"
    },
    {
      "anonymous": false,
      "inputs": [
        {
          "indexed": false,
          "internalType": "uint256",
          "name": "totalLockedAmount",
          "type": "uint256"
        }
      ],
      "name": "LogInitialized",
      "type": "event"
    },
    {
      "anonymous": false,
      "inputs": [
        {
          "indexed": true,
          "internalType": "address",
          "name": "leaver",
          "type": "address"
        },
        {
          "indexed": false,
          "internalType": "enum AddLockTokenLock.LeaverType",
          "name": "leaverType",
          "type": "uint8"
        },
        {
          "indexed": false,
          "internalType": "uint256",
          "name": "newTotalStake",
          "type": "uint256"
        }
      ],
      "name": "LogLeave",
      "type": "event"
    },
    {
      "anonymous": false,
      "inputs": [
        {
          "indexed": false,
          "internalType": "address",
          "name": "wallet",
          "type": "address"
        },
        {
          "indexed": false,
          "internalType": "uint256",
          "name": "amount",
          "type": "uint256"
        }
      ],
      "name": "LogLock",
      "type": "event"
    },
    {
      "anonymous": false,
      "inputs": [
        {
          "indexed": true,
          "internalType": "address",
          "name": "wallet",
          "type": "address"
        },
        {
          "indexed": false,
          "internalType": "uint256",
          "name": "amount",
          "type": "uint256"
        }
      ],
      "name": "LogLockAmount",
      "type": "event"
    },
    {
      "anonymous": false,
      "inputs": [
        {
          "indexed": true,
          "internalType": "address",
          "name": "sender",
          "type": "address"
        },
        {
          "indexed": false,
          "internalType": "uint256",
          "name": "amount",
          "type": "uint256"
        }
      ],
      "name": "LogRelease",
      "type": "event"
    },
    {
      "inputs": [],
      "name": "cliffPeriod",
      "outputs": [
        {
          "internalType": "uint256",
          "name": "",
          "type": "uint256"
        }
      ],
      "stateMutability": "view",
      "type": "function"
    },
    {
      "inputs": [],
      "name": "fund",
      "outputs": [],
      "stateMutability": "nonpayable",
      "type": "function"
    },
    {
      "inputs": [
        {
          "internalType": "address",
          "name": "wallet",
          "type": "address"
        }
      ],
      "name": "hasLeft",
      "outputs": [
        {
          "internalType": "enum AddLockTokenLock.LeaverType",
          "name": "",
          "type": "uint8"
        }
      ],
      "stateMutability": "view",
      "type": "function"
    },
    {
      "inputs": [],
      "name": "initialReleaseFraction",
      "outputs": [
        {
          "internalType": "uint256",
          "name": "",
          "type": "uint256"
        }
      ],
      "stateMutability": "view",
      "type": "function"
    },
    {
      "inputs": [
        {
          "internalType": "address",
          "name": "wallet",
          "type": "address"
        },
        {
          "internalType": "uint256",
          "name": "amount",
          "type": "uint256"
        }
      ],
      "name": "lockAmount",
      "outputs": [],
      "stateMutability": "nonpayable",
      "type": "function"
    },
    {
      "inputs": [],
      "name": "managerAddress",
      "outputs": [
        {
          "internalType": "address",
          "name": "",
          "type": "address"
        }
      ],
      "stateMutability": "view",
      "type": "function"
    },
    {
      "inputs": [],
      "name": "release",
      "outputs": [],
      "stateMutability": "nonpayable",
      "type": "function"
    },
    {
      "inputs": [],
      "name": "startTime",
      "outputs": [
        {
          "internalType": "uint256",
          "name": "",
          "type": "uint256"
        }
      ],
      "stateMutability": "view",
      "type": "function"
    },
    {
      "inputs": [],
      "name": "state",
      "outputs": [
        {
          "internalType": "enum TokenLock.State",
          "name": "",
          "type": "uint8"
        }
      ],
      "stateMutability": "view",
      "type": "function"
    },
    {
      "inputs": [],
      "name": "token",
      "outputs": [
        {
          "internalType": "contract IERC20",
          "name": "",
          "type": "address"
        }
      ],
      "stateMutability": "view",
      "type": "function"
    },
    {
      "inputs": [
        {
          "internalType": "address",
          "name": "sender",
          "type": "address"
        },
        {
          "internalType": "uint256",
          "name": "timestamp",
          "type": "uint256"
        }
      ],
      "name": "tokensVested",
      "outputs": [
        {
          "internalType": "uint256",
          "name": "vestedTokens",
          "type": "uint256"
        }
      ],
      "stateMutability": "view",
      "type": "function"
    },
    {
      "inputs": [],
      "name": "totalLockedTokens",
      "outputs": [
        {
          "internalType": "uint256",
          "name": "",
          "type": "uint256"
        }
      ],
      "stateMutability": "view",
      "type": "function"
    },
    {
      "inputs": [
        {
          "internalType": "address",
          "name": "sender",
          "type": "address"
        }
      ],
      "name": "totalTokensOf",
      "outputs": [
        {
          "internalType": "uint256",
          "name": "",
          "type": "uint256"
        }
      ],
      "stateMutability": "view",
      "type": "function"
    },
    {
      "inputs": [
        {
          "internalType": "address",
          "name": "sender",
          "type": "address"
        }
      ],
      "name": "unlockedTokensOf",
      "outputs": [
        {
          "internalType": "uint256",
          "name": "",
          "type": "uint256"
        }
      ],
      "stateMutability": "view",
      "type": "function"
    },
    {
      "inputs": [],
      "name": "vestingPeriod",
      "outputs": [
        {
          "internalType": "uint256",
          "name": "",
          "type": "uint256"
        }
      ],
      "stateMutability": "view",
      "type": "function"
    }
  ],
  "bytecode": "0x6101406040523480156200001257600080fd5b50604051620019a3380380620019a383398101604081905262000035916200067a565b85858560008086868051825114620000a35760405162461bcd60e51b815260206004820152602660248201527f6e756d626572206f6620656c656d656e747320696e206c69737473206d757374604482015265040dac2e8c6d60d31b60648201526084015b60405180910390fd5b60008511620001035760405162461bcd60e51b815260206004820152602560248201527f76657374696e67506572696f645f206d75737420626520677265617465722074604482015264068616e20360dc1b60648201526084016200009a565b6200011262278d008662000811565b15620001755760405162461bcd60e51b815260206004820152602b60248201527f76657374696e67506572696f645f206d75737420626520646976697369626c6560448201526a206279203330206461797360a81b60648201526084016200009a565b6200018462278d008562000811565b15620001e55760405162461bcd60e51b815260206004820152602960248201527f636c696666506572696f645f206d75737420626520646976697369626c65206260448201526879203330206461797360b81b60648201526084016200009a565b8484106200024c5760405162461bcd60e51b815260206004820152602d60248201527f636c696666506572696f645f206d757374206265206c657373207468616e207660448201526c657374696e67506572696f645f60981b60648201526084016200009a565b670de0b6b3a7640000831115620002cc5760405162461bcd60e51b815260206004820152603460248201527f696e697469616c52656c656173654672616374696f6e5f206d7573742062652060448201527f696e2072616e6765203c302c2031302a2a31383e00000000000000000000000060648201526084016200009a565b600083118015620002dd5750600084115b15620003525760405162461bcd60e51b815260206004820152603760248201527f636c69666620706572696f6420616e6420696e697469616c2072656c6561736560448201527f2063616e6e6f742062652073657420746f67657468657200000000000000000060648201526084016200009a565b6001600160601b0319606088901b1660805260a086905260c085905260e08490526101008390526000805b835181101562000574576000808583815181106200039f576200039f62000834565b60200260200101516001600160a01b03166001600160a01b03168152602001908152602001600020600001546000146200042e5760405162461bcd60e51b815260206004820152602960248201527f4475706c69636174657320696e206c697374206f662077616c6c657473206e6f6044820152681d08185b1b1bddd95960ba1b60648201526084016200009a565b82818151811062000443576200044362000834565b60200260200101516001600160801b03166000808684815181106200046c576200046c62000834565b60200260200101516001600160a01b03166001600160a01b0316815260200190815260200160002060000181905550828181518110620004b057620004b062000834565b60200260200101516001600160801b031682620004ce9190620007ea565b91507fd2d8029b590b213926d1942da16c1539e0cb768814328fbf3bb1ab943c4bd4b284828151811062000506576200050662000834565b602002602001015184838151811062000523576200052362000834565b6020026020010151604051620005579291906001600160a01b039290921682526001600160801b0316602082015260400190565b60405180910390a16200056c600182620007ea565b90506200037d565b506101208190526040518181527f0c914d3ab4f39f6498ee2eb2fb7519e0ae490fe97cb6daad6fabda99d740d1489060200160405180910390a15050600180546001600160a01b03909a1661010002610100600160a81b0319909a169990991790985550620008799950505050505050505050565b600082601f830112620005fb57600080fd5b81516020620006146200060e83620007c4565b62000791565b80838252828201915082860187848660051b89010111156200063557600080fd5b6000805b868110156200066c5782516001600160801b038116811462000659578283fd5b8552938501939185019160010162000639565b509198975050505050505050565b60008060008060008060c087890312156200069457600080fd5b8651620006a18162000860565b809650506020808801519550604088015194506060880151620006c48162000860565b60808901519094506001600160401b0380821115620006e257600080fd5b818a0191508a601f830112620006f757600080fd5b8151620007086200060e82620007c4565b8082825285820191508585018e878560051b88010111156200072957600080fd5b600095505b8386101562000759578051620007448162000860565b8352600195909501949186019186016200072e565b5060a08d015190975094505050808311156200077457600080fd5b50506200078489828a01620005e9565b9150509295509295509295565b604051601f8201601f191681016001600160401b0381118282101715620007bc57620007bc6200084a565b604052919050565b60006001600160401b03821115620007e057620007e06200084a565b5060051b60200190565b600082198211156200080c57634e487b7160e01b600052601160045260246000fd5b500190565b6000826200082f57634e487b7160e01b600052601260045260246000fd5b500690565b634e487b7160e01b600052603260045260246000fd5b634e487b7160e01b600052604160045260246000fd5b6001600160a01b03811681146200087657600080fd5b50565b60805160601c60a05160c05160e051610100516101205161108362000920600039600081816102aa0152818161085a01526108880152600081816101480152610ace0152600081816101220152610a1c0152600081816101af01528181610a980152610b020152600081816101d501528181610a3d0152610a710152600081816102d001528181610728015281816107dc015281816108b101526109bf01526110836000f3fe608060405234801561001057600080fd5b50600436106100f55760003560e01c806386d1a69f11610097578063c77303ff11610066578063c77303ff14610245578063cf73a1bc1461027e578063f5c476f9146102a8578063fc0c546a146102ce57600080fd5b806386d1a69f146101f9578063b60d428814610201578063b7bc74f914610209578063c19d93fb1461023257600080fd5b806359b1924d116100d357806359b1924d1461016c578063623decaa146101815780637313ee5a146101ad57806378e97925146101d357600080fd5b80631325956a146100fa5780632f661946146101205780634659287c14610146575b600080fd5b61010d610108366004610e8d565b6102f4565b6040519081526020015b60405180910390f35b7f000000000000000000000000000000000000000000000000000000000000000061010d565b7f000000000000000000000000000000000000000000000000000000000000000061010d565b61017f61017a366004610e8d565b610320565b005b61010d61018f366004610e72565b6001600160a01b031660009081526020819052604090206001015490565b7f000000000000000000000000000000000000000000000000000000000000000061010d565b7f000000000000000000000000000000000000000000000000000000000000000061010d565b61017f6105eb565b61017f610754565b61010d610217366004610e72565b6001600160a01b031660009081526020819052604090205490565b60015460ff166040516101179190610f28565b610271610253366004610e72565b6001600160a01b031660009081526002602052604090205460ff1690565b6040516101179190610f0e565b60015461010090046001600160a01b03165b6040516001600160a01b039091168152602001610117565b7f000000000000000000000000000000000000000000000000000000000000000061010d565b7f0000000000000000000000000000000000000000000000000000000000000000610290565b6001600160a01b0382166000908152602081905260408120546103179083610a15565b90505b92915050565b60015461010090046001600160a01b031633146103735760405162461bcd60e51b815260206004820152600c60248201526b27b7363c9036b0b730b3b2b960a11b60448201526064015b60405180910390fd5b6001805460ff168181111561038a5761038a611037565b146103d25760405162461bcd60e51b81526020600482015260186024820152774e6f7420696e20496e697469616c697a656420737461746560401b604482015260640161036a565b8160006001600160a01b03821660009081526002602081905260409091205460ff169081111561040457610404611037565b146104515760405162461bcd60e51b815260206004820152601d60248201527f5370656369666965642077616c6c657420616c7265616479206c656674000000604482015260640161036a565b6001546001600160a01b038481166101009092041614156104b45760405162461bcd60e51b815260206004820152601d60248201527f4d616e616765722063616e6e6f742072657374616b6520697473656c66000000604482015260640161036a565b6001805461010090046001600160a01b03166000908152602081815260409182902082518084019093528054808452930154908201819052909184916104f991610fc8565b10156105515760405162461bcd60e51b815260206004820152602160248201527f4e6f7420656e6f75676820617661696c61626c65207374616b6520746f2061646044820152601960fa1b606482015260840161036a565b6001600160a01b03841660009081526020819052604081208054859290610579908490610f6f565b9091555050805161058b908490610fc8565b60015461010090046001600160a01b03908116600090815260208181526040918290209390935551858152908616917fc23836c8a4cc11b7be44c36238d48d82f46aaf080b4102d07986eb97012fa9ee910160405180910390a250505050565b6001805460ff168181111561060257610602611037565b1461064a5760405162461bcd60e51b81526020600482015260186024820152774e6f7420696e20496e697469616c697a656420737461746560401b604482015260640161036a565b3360008181526020818152604080832081518083019092528054808352600190910154928201839052909291906106819042610a15565b61068b9190610fc8565b905080826020015161069d9190610f6f565b825110156106ad576106ad61100b565b6001600160a01b038316600090815260208190526040812060010180548392906106d8908490610f6f565b90915550506040518181526001600160a01b038416907f4870984673bc1d83230a9897f845d74cfd161d5f556e181d08c56ec6acc92bac9060200160405180910390a261074f6001600160a01b037f0000000000000000000000000000000000000000000000000000000000000000168483610b53565b505050565b60006001805460ff169081111561076d5761076d611037565b146107b05760405162461bcd60e51b81526020600482015260136024820152724e6f7420696e2046756e64656420737461746560681b604482015260640161036a565b6001805460ff1916811790556040516370a0823160e01b81523060048201526000906001600160a01b037f000000000000000000000000000000000000000000000000000000000000000016906370a082319060240160206040518083038186803b15801561081e57600080fd5b505afa158015610832573d6000803e3d6000fd5b505050506040513d601f19601f820116820180604052508101906108569190610ed9565b90507f00000000000000000000000000000000000000000000000000000000000000008110156109e95760006108ac827f0000000000000000000000000000000000000000000000000000000000000000610fc8565b9050807f0000000000000000000000000000000000000000000000000000000000000000604051636eb1769f60e11b81523360048201523060248201526001600160a01b03919091169063dd62ed3e9060440160206040518083038186803b15801561091757600080fd5b505afa15801561092b573d6000803e3d6000fd5b505050506040513d601f19601f8201168201806040525081019061094f9190610ed9565b10156109b25760405162461bcd60e51b815260206004820152602c60248201527f4e6f2073756666696369656e7420616c6c6f77616e636520746f2066756e642060448201526b1d1a194818dbdb9d1c9858dd60a21b606482015260840161036a565b6109e76001600160a01b037f000000000000000000000000000000000000000000000000000000000000000016333084610bb6565b505b6040517ffcf50d5f3e0ec1706ab6464f948aba802c0b96a54a4e0b0186047a25fc1b749890600090a150565b6000610a617f00000000000000000000000000000000000000000000000000000000000000007f0000000000000000000000000000000000000000000000000000000000000000610f6f565b821061031a576000610abc610a967f000000000000000000000000000000000000000000000000000000000000000085610fc8565b7f0000000000000000000000000000000000000000000000000000000000000000610bf4565b90506000670de0b6b3a7640000610af37f000000000000000000000000000000000000000000000000000000000000000087610fa9565b610afd9190610f87565b9050807f000000000000000000000000000000000000000000000000000000000000000083610b2c8389610fc8565b610b369190610fa9565b610b409190610f87565b610b4a9190610f6f565b95945050505050565b6040516001600160a01b03831660248201526044810182905261074f90849063a9059cbb60e01b906064015b60408051601f198184030181529190526020810180516001600160e01b03166001600160e01b031990931692909217909152610c0a565b6040516001600160a01b0380851660248301528316604482015260648101829052610bee9085906323b872dd60e01b90608401610b7f565b50505050565b6000818310610c035781610317565b5090919050565b6000610c5f826040518060400160405280602081526020017f5361666545524332303a206c6f772d6c6576656c2063616c6c206661696c6564815250856001600160a01b0316610cdc9092919063ffffffff16565b80519091501561074f5780806020019051810190610c7d9190610eb7565b61074f5760405162461bcd60e51b815260206004820152602a60248201527f5361666545524332303a204552433230206f7065726174696f6e20646964206e6044820152691bdd081cdd58d8d9595960b21b606482015260840161036a565b6060610ceb8484600085610cf5565b90505b9392505050565b606082471015610d565760405162461bcd60e51b815260206004820152602660248201527f416464726573733a20696e73756666696369656e742062616c616e636520666f6044820152651c8818d85b1b60d21b606482015260840161036a565b843b610da45760405162461bcd60e51b815260206004820152601d60248201527f416464726573733a2063616c6c20746f206e6f6e2d636f6e7472616374000000604482015260640161036a565b600080866001600160a01b03168587604051610dc09190610ef2565b60006040518083038185875af1925050503d8060008114610dfd576040519150601f19603f3d011682016040523d82523d6000602084013e610e02565b606091505b5091509150610e12828286610e1d565b979650505050505050565b60608315610e2c575081610cee565b825115610e3c5782518084602001fd5b8160405162461bcd60e51b815260040161036a9190610f3c565b80356001600160a01b0381168114610e6d57600080fd5b919050565b600060208284031215610e8457600080fd5b61031782610e56565b60008060408385031215610ea057600080fd5b610ea983610e56565b946020939093013593505050565b600060208284031215610ec957600080fd5b81518015158114610cee57600080fd5b600060208284031215610eeb57600080fd5b5051919050565b60008251610f04818460208701610fdf565b9190910192915050565b6020810160038310610f2257610f22611037565b91905290565b6020810160028310610f2257610f22611037565b6020815260008251806020840152610f5b816040850160208701610fdf565b601f01601f19169190910160400192915050565b60008219821115610f8257610f82611021565b500190565b600082610fa457634e487b7160e01b600052601260045260246000fd5b500490565b6000816000190483118215151615610fc357610fc3611021565b500290565b600082821015610fda57610fda611021565b500390565b60005b83811015610ffa578181015183820152602001610fe2565b83811115610bee5750506000910152565b634e487b7160e01b600052600160045260246000fd5b634e487b7160e01b600052601160045260246000fd5b634e487b7160e01b600052602160045260246000fdfea26469706673582212209f6048008d8cd83266e082556b4a939428a9dcca489736d543433505e128354b64736f6c63430008070033",
  "linkReferences": {},
  "deployedLinkReferences": {}
}