{
  "_format": "hh-sol-artifact-1",
  "contractName": "LeaverTokenLock",
  "sourceName": "contracts/LeaverTokenLock.sol",
  "abi": [
    {
      "inputs": [
        {
          "internalType": "contract IERC20",
          "name": "token_",
          "type": "address"
        },
        {
          "internalType": "uint256",
          "name": "startTime_",
          "type": "uint256"
        },
        {
          "internalType": "uint256",
          "name": "vestingPeriod_",
          "type": "uint256"
        },
        {
          "internalType": "address",
          "name": "manager_",
          "type": "address"
        },
        {
          "internalType": "address[]",
          "name": "wallets_",
          "type": "address[]"
        },
        {
          "internalType": "uint128[]",
          "name": "amounts_",
          "type": "uint128[]"
        }
      ],
      "stateMutability": "nonpayable",
      "type": "constructor"
    },
    {
      "anonymous": false,
      "inputs": [],
      "name": "LogFunded",
      "type": "event"
    },
    {
      "anonymous": false,
      "inputs": [
        {
          "indexed": false,
          "internalType": "uint256",
          "name": "totalLockedAmount",
          "type": "uint256"
        }
      ],
      "name": "LogInitialized",
      "type": "event"
    },
    {
      "anonymous": false,
      "inputs": [
        {
          "indexed": true,
          "internalType": "address",
          "name": "leaver",
          "type": "address"
        },
        {
          "indexed": false,
          "internalType": "enum LeaverTokenLock.LeaverType",
          "name": "leaverType",
          "type": "uint8"
        },
        {
          "indexed": false,
          "internalType": "uint256",
          "name": "newTotalStake",
          "type": "uint256"
        }
      ],
      "name": "LogLeave",
      "type": "event"
    },
    {
      "anonymous": false,
      "inputs": [
        {
          "indexed": false,
          "internalType": "address",
          "name": "wallet",
          "type": "address"
        },
        {
          "indexed": false,
          "internalType": "uint256",
          "name": "amount",
          "type": "uint256"
        }
      ],
      "name": "LogLock",
      "type": "event"
    },
    {
      "anonymous": false,
      "inputs": [
        {
          "indexed": true,
          "internalType": "address",
          "name": "wallet",
          "type": "address"
        },
        {
          "indexed": false,
          "internalType": "uint256",
          "name": "amount",
          "type": "uint256"
        }
      ],
      "name": "LogLockAmount",
      "type": "event"
    },
    {
      "anonymous": false,
      "inputs": [
        {
          "indexed": true,
          "internalType": "address",
          "name": "sender",
          "type": "address"
        },
        {
          "indexed": false,
          "internalType": "uint256",
          "name": "amount",
          "type": "uint256"
        }
      ],
      "name": "LogRelease",
      "type": "event"
    },
    {
      "inputs": [],
      "name": "cliffPeriod",
      "outputs": [
        {
          "internalType": "uint256",
          "name": "",
          "type": "uint256"
        }
      ],
      "stateMutability": "view",
      "type": "function"
    },
    {
      "inputs": [],
      "name": "fund",
      "outputs": [],
      "stateMutability": "nonpayable",
      "type": "function"
    },
    {
      "inputs": [
        {
          "internalType": "address",
          "name": "wallet",
          "type": "address"
        }
      ],
      "name": "hasLeft",
      "outputs": [
        {
          "internalType": "enum LeaverTokenLock.LeaverType",
          "name": "",
          "type": "uint8"
        }
      ],
      "stateMutability": "view",
      "type": "function"
    },
    {
      "inputs": [],
      "name": "initialReleaseFraction",
      "outputs": [
        {
          "internalType": "uint256",
          "name": "",
          "type": "uint256"
        }
      ],
      "stateMutability": "view",
      "type": "function"
    },
    {
      "inputs": [
        {
          "internalType": "address",
          "name": "wallet",
          "type": "address"
        },
        {
          "internalType": "bool",
          "name": "isBadLeaver",
          "type": "bool"
        }
      ],
      "name": "leaveWallet",
      "outputs": [],
      "stateMutability": "nonpayable",
      "type": "function"
    },
    {
      "inputs": [
        {
          "internalType": "address",
          "name": "wallet",
          "type": "address"
        },
        {
          "internalType": "uint256",
          "name": "amount",
          "type": "uint256"
        }
      ],
      "name": "lockAmount",
      "outputs": [],
      "stateMutability": "nonpayable",
      "type": "function"
    },
    {
      "inputs": [],
      "name": "managerAddress",
      "outputs": [
        {
          "internalType": "address",
          "name": "",
          "type": "address"
        }
      ],
      "stateMutability": "view",
      "type": "function"
    },
    {
      "inputs": [],
      "name": "release",
      "outputs": [],
      "stateMutability": "nonpayable",
      "type": "function"
    },
    {
      "inputs": [],
      "name": "startTime",
      "outputs": [
        {
          "internalType": "uint256",
          "name": "",
          "type": "uint256"
        }
      ],
      "stateMutability": "view",
      "type": "function"
    },
    {
      "inputs": [],
      "name": "state",
      "outputs": [
        {
          "internalType": "enum TokenLock.State",
          "name": "",
          "type": "uint8"
        }
      ],
      "stateMutability": "view",
      "type": "function"
    },
    {
      "inputs": [],
      "name": "token",
      "outputs": [
        {
          "internalType": "contract IERC20",
          "name": "",
          "type": "address"
        }
      ],
      "stateMutability": "view",
      "type": "function"
    },
    {
      "inputs": [
        {
          "internalType": "address",
          "name": "sender",
          "type": "address"
        },
        {
          "internalType": "uint256",
          "name": "timestamp",
          "type": "uint256"
        }
      ],
      "name": "tokensAccumulated",
      "outputs": [
        {
          "internalType": "uint256",
          "name": "accumulatedTokens",
          "type": "uint256"
        }
      ],
      "stateMutability": "view",
      "type": "function"
    },
    {
      "inputs": [
        {
          "internalType": "address",
          "name": "sender",
          "type": "address"
        },
        {
          "internalType": "uint256",
          "name": "timestamp",
          "type": "uint256"
        }
      ],
      "name": "tokensVested",
      "outputs": [
        {
          "internalType": "uint256",
          "name": "vestedTokens",
          "type": "uint256"
        }
      ],
      "stateMutability": "view",
      "type": "function"
    },
    {
      "inputs": [],
      "name": "totalLockedTokens",
      "outputs": [
        {
          "internalType": "uint256",
          "name": "",
          "type": "uint256"
        }
      ],
      "stateMutability": "view",
      "type": "function"
    },
    {
      "inputs": [
        {
          "internalType": "address",
          "name": "sender",
          "type": "address"
        }
      ],
      "name": "totalTokensOf",
      "outputs": [
        {
          "internalType": "uint256",
          "name": "",
          "type": "uint256"
        }
      ],
      "stateMutability": "view",
      "type": "function"
    },
    {
      "inputs": [
        {
          "internalType": "address",
          "name": "sender",
          "type": "address"
        }
      ],
      "name": "unlockedTokensOf",
      "outputs": [
        {
          "internalType": "uint256",
          "name": "",
          "type": "uint256"
        }
      ],
      "stateMutability": "view",
      "type": "function"
    },
    {
      "inputs": [],
      "name": "vestingPeriod",
      "outputs": [
        {
          "internalType": "uint256",
          "name": "",
          "type": "uint256"
        }
      ],
      "stateMutability": "view",
      "type": "function"
    }
  ],
  "bytecode": "0x6101406040523480156200001257600080fd5b5060405162001e1438038062001e1483398101604081905262000035916200067a565b85858560008086868051825114620000a35760405162461bcd60e51b815260206004820152602660248201527f6e756d626572206f6620656c656d656e747320696e206c69737473206d757374604482015265040dac2e8c6d60d31b60648201526084015b60405180910390fd5b60008511620001035760405162461bcd60e51b815260206004820152602560248201527f76657374696e67506572696f645f206d75737420626520677265617465722074604482015264068616e20360dc1b60648201526084016200009a565b6200011262278d008662000811565b15620001755760405162461bcd60e51b815260206004820152602b60248201527f76657374696e67506572696f645f206d75737420626520646976697369626c6560448201526a206279203330206461797360a81b60648201526084016200009a565b6200018462278d008562000811565b15620001e55760405162461bcd60e51b815260206004820152602960248201527f636c696666506572696f645f206d75737420626520646976697369626c65206260448201526879203330206461797360b81b60648201526084016200009a565b8484106200024c5760405162461bcd60e51b815260206004820152602d60248201527f636c696666506572696f645f206d757374206265206c657373207468616e207660448201526c657374696e67506572696f645f60981b60648201526084016200009a565b670de0b6b3a7640000831115620002cc5760405162461bcd60e51b815260206004820152603460248201527f696e697469616c52656c656173654672616374696f6e5f206d7573742062652060448201527f696e2072616e6765203c302c2031302a2a31383e00000000000000000000000060648201526084016200009a565b600083118015620002dd5750600084115b15620003525760405162461bcd60e51b815260206004820152603760248201527f636c69666620706572696f6420616e6420696e697469616c2072656c6561736560448201527f2063616e6e6f742062652073657420746f67657468657200000000000000000060648201526084016200009a565b6001600160601b0319606088901b1660805260a086905260c085905260e08490526101008390526000805b835181101562000574576000808583815181106200039f576200039f62000834565b60200260200101516001600160a01b03166001600160a01b03168152602001908152602001600020600001546000146200042e5760405162461bcd60e51b815260206004820152602960248201527f4475706c69636174657320696e206c697374206f662077616c6c657473206e6f6044820152681d08185b1b1bddd95960ba1b60648201526084016200009a565b82818151811062000443576200044362000834565b60200260200101516001600160801b03166000808684815181106200046c576200046c62000834565b60200260200101516001600160a01b03166001600160a01b0316815260200190815260200160002060000181905550828181518110620004b057620004b062000834565b60200260200101516001600160801b031682620004ce9190620007ea565b91507fd2d8029b590b213926d1942da16c1539e0cb768814328fbf3bb1ab943c4bd4b284828151811062000506576200050662000834565b602002602001015184838151811062000523576200052362000834565b6020026020010151604051620005579291906001600160a01b039290921682526001600160801b0316602082015260400190565b60405180910390a16200056c600182620007ea565b90506200037d565b506101208190526040518181527f0c914d3ab4f39f6498ee2eb2fb7519e0ae490fe97cb6daad6fabda99d740d1489060200160405180910390a15050600180546001600160a01b03909a1661010002610100600160a81b0319909a169990991790985550620008799950505050505050505050565b600082601f830112620005fb57600080fd5b81516020620006146200060e83620007c4565b62000791565b80838252828201915082860187848660051b89010111156200063557600080fd5b6000805b868110156200066c5782516001600160801b038116811462000659578283fd5b8552938501939185019160010162000639565b509198975050505050505050565b60008060008060008060c087890312156200069457600080fd5b8651620006a18162000860565b809650506020808801519550604088015194506060880151620006c48162000860565b60808901519094506001600160401b0380821115620006e257600080fd5b818a0191508a601f830112620006f757600080fd5b8151620007086200060e82620007c4565b8082825285820191508585018e878560051b88010111156200072957600080fd5b600095505b8386101562000759578051620007448162000860565b8352600195909501949186019186016200072e565b5060a08d015190975094505050808311156200077457600080fd5b50506200078489828a01620005e9565b9150509295509295509295565b604051601f8201601f191681016001600160401b0381118282101715620007bc57620007bc6200084a565b604052919050565b60006001600160401b03821115620007e057620007e06200084a565b5060051b60200190565b600082198211156200080c57634e487b7160e01b600052601160045260246000fd5b500190565b6000826200082f57634e487b7160e01b600052601260045260246000fd5b500690565b634e487b7160e01b600052603260045260246000fd5b634e487b7160e01b600052604160045260246000fd5b6001600160a01b03811681146200087657600080fd5b50565b60805160601c60a05160c05160e05161010051610120516114df62000935600039600081816102e601528181610b230152610b510152600081816101730152610dba01526000818161014d0152610d080152600081816101d801528181610d8401528181610dee01528181610e470152610e9c0152600081816101fe01528181610d2901528181610d5d0152610e6801526000818161030c015281816109f101528181610aa501528181610b7a0152610c8801526114df6000f3fe608060405234801561001057600080fd5b506004361061010b5760003560e01c806386d1a69f116100a2578063c19d93fb11610071578063c19d93fb1461026e578063c77303ff14610281578063cf73a1bc146102ba578063f5c476f9146102e4578063fc0c546a1461030a57600080fd5b806386d1a69f14610222578063b60d42881461022a578063b7bc74f914610232578063b85595cd1461025b57600080fd5b806359b1924d116100de57806359b1924d14610197578063623decaa146101aa5780637313ee5a146101d657806378e97925146101fc57600080fd5b80631325956a146101105780631e8514f8146101365780632f6619461461014b5780634659287c14610171575b600080fd5b61012361011e36600461127d565b610330565b6040519081526020015b60405180910390f35b610149610144366004611246565b61035c565b005b7f0000000000000000000000000000000000000000000000000000000000000000610123565b7f0000000000000000000000000000000000000000000000000000000000000000610123565b6101496101a536600461127d565b610644565b6101236101b836600461122b565b6001600160a01b031660009081526020819052604090206001015490565b7f0000000000000000000000000000000000000000000000000000000000000000610123565b7f0000000000000000000000000000000000000000000000000000000000000000610123565b6101496108df565b610149610a1d565b61012361024036600461122b565b6001600160a01b031660009081526020819052604090205490565b61012361026936600461127d565b610cde565b60015460ff1660405161012d9190611336565b6102ad61028f36600461122b565b6001600160a01b031660009081526002602052604090205460ff1690565b60405161012d919061130d565b60015461010090046001600160a01b03165b6040516001600160a01b03909116815260200161012d565b7f0000000000000000000000000000000000000000000000000000000000000000610123565b7f00000000000000000000000000000000000000000000000000000000000000006102cc565b6001600160a01b0382166000908152602081905260408120546103539083610d01565b90505b92915050565b60015461010090046001600160a01b031633146103af5760405162461bcd60e51b815260206004820152600c60248201526b27b7363c9036b0b730b3b2b960a11b60448201526064015b60405180910390fd5b6001805460ff16818111156103c6576103c6611482565b146103e35760405162461bcd60e51b81526004016103a690611383565b8160006001600160a01b03821660009081526002602081905260409091205460ff169081111561041557610415611482565b146104625760405162461bcd60e51b815260206004820152601d60248201527f5370656369666965642077616c6c657420616c7265616479206c65667400000060448201526064016103a6565b6001546001600160a01b038481166101009092041614156104bc5760405162461bcd60e51b81526020600482015260146024820152734d616e616765722063616e6e6f74206c6561766560601b60448201526064016103a6565b6001600160a01b038316600090815260208181526040808320815180830190925280548083526001909101549282019290925291906104fb9042610e3f565b90506000841561052557602083015161051e90610519600a856113d2565b610efc565b905061054c565b8251600290610535908490611413565b61053f91906113d2565b61054990836113ba565b90505b6001600160a01b03861660009081526020819052604090208190558251610574908290611413565b33600090815260208190526040812080549091906105939084906113ba565b9091555060009050856105a75760016105aa565b60025b90508060026000896001600160a01b03166001600160a01b0316815260200190815260200160002060006101000a81548160ff021916908360028111156105f3576105f3611482565b0217905550866001600160a01b03167f15686c63087bffa0162e399cd5cb7f4359d0edb67c96bf9a5712bd338abac875828460405161063392919061131b565b60405180910390a250505050505050565b60015461010090046001600160a01b031633146106925760405162461bcd60e51b815260206004820152600c60248201526b27b7363c9036b0b730b3b2b960a11b60448201526064016103a6565b6001805460ff16818111156106a9576106a9611482565b146106c65760405162461bcd60e51b81526004016103a690611383565b8160006001600160a01b03821660009081526002602081905260409091205460ff16908111156106f8576106f8611482565b146107455760405162461bcd60e51b815260206004820152601d60248201527f5370656369666965642077616c6c657420616c7265616479206c65667400000060448201526064016103a6565b6001546001600160a01b038481166101009092041614156107a85760405162461bcd60e51b815260206004820152601d60248201527f4d616e616765722063616e6e6f742072657374616b6520697473656c6600000060448201526064016103a6565b6001805461010090046001600160a01b03166000908152602081815260409182902082518084019093528054808452930154908201819052909184916107ed91611413565b10156108455760405162461bcd60e51b815260206004820152602160248201527f4e6f7420656e6f75676820617661696c61626c65207374616b6520746f2061646044820152601960fa1b60648201526084016103a6565b6001600160a01b0384166000908152602081905260408120805485929061086d9084906113ba565b9091555050805161087f908490611413565b60015461010090046001600160a01b03908116600090815260208181526040918290209390935551858152908616917fc23836c8a4cc11b7be44c36238d48d82f46aaf080b4102d07986eb97012fa9ee910160405180910390a250505050565b6001805460ff16818111156108f6576108f6611482565b146109135760405162461bcd60e51b81526004016103a690611383565b33600081815260208181526040808320815180830190925280548083526001909101549282018390529092919061094a9042610d01565b6109549190611413565b905080826020015161096691906113ba565b8251101561097657610976611456565b6001600160a01b038316600090815260208190526040812060010180548392906109a19084906113ba565b90915550506040518181526001600160a01b038416907f4870984673bc1d83230a9897f845d74cfd161d5f556e181d08c56ec6acc92bac9060200160405180910390a2610a186001600160a01b037f0000000000000000000000000000000000000000000000000000000000000000168483610f13565b505050565b60006001805460ff1690811115610a3657610a36611482565b14610a795760405162461bcd60e51b81526020600482015260136024820152724e6f7420696e2046756e64656420737461746560681b60448201526064016103a6565b6001805460ff1916811790556040516370a0823160e01b81523060048201526000906001600160a01b037f000000000000000000000000000000000000000000000000000000000000000016906370a082319060240160206040518083038186803b158015610ae757600080fd5b505afa158015610afb573d6000803e3d6000fd5b505050506040513d601f19601f82011682018060405250810190610b1f91906112c4565b90507f0000000000000000000000000000000000000000000000000000000000000000811015610cb2576000610b75827f0000000000000000000000000000000000000000000000000000000000000000611413565b9050807f0000000000000000000000000000000000000000000000000000000000000000604051636eb1769f60e11b81523360048201523060248201526001600160a01b03919091169063dd62ed3e9060440160206040518083038186803b158015610be057600080fd5b505afa158015610bf4573d6000803e3d6000fd5b505050506040513d601f19601f82011682018060405250810190610c1891906112c4565b1015610c7b5760405162461bcd60e51b815260206004820152602c60248201527f4e6f2073756666696369656e7420616c6c6f77616e636520746f2066756e642060448201526b1d1a194818dbdb9d1c9858dd60a21b60648201526084016103a6565b610cb06001600160a01b037f000000000000000000000000000000000000000000000000000000000000000016333084610f76565b505b6040517ffcf50d5f3e0ec1706ab6464f948aba802c0b96a54a4e0b0186047a25fc1b749890600090a150565b6001600160a01b0382166000908152602081905260408120546103539083610e3f565b6000610d4d7f00000000000000000000000000000000000000000000000000000000000000007f00000000000000000000000000000000000000000000000000000000000000006113ba565b8210610356576000610da8610d827f000000000000000000000000000000000000000000000000000000000000000085611413565b7f0000000000000000000000000000000000000000000000000000000000000000610fb4565b90506000670de0b6b3a7640000610ddf7f0000000000000000000000000000000000000000000000000000000000000000876113f4565b610de991906113d2565b9050807f000000000000000000000000000000000000000000000000000000000000000083610e188389611413565b610e2291906113f4565b610e2c91906113d2565b610e3691906113ba565b95945050505050565b600080610e8c7f00000000000000000000000000000000000000000000000000000000000000007f0000000000000000000000000000000000000000000000000000000000000000611413565b9050808310610ef5576000610ec27f000000000000000000000000000000000000000000000000000000000000000060026113f4565b90506000610ed9610ed38487611413565b83610fb4565b905081610ee682886113f4565b610ef091906113d2565b935050505b5092915050565b600081831015610f0c5781610353565b5090919050565b6040516001600160a01b038316602482015260448101829052610a1890849063a9059cbb60e01b906064015b60408051601f198184030181529190526020810180516001600160e01b03166001600160e01b031990931692909217909152610fc3565b6040516001600160a01b0380851660248301528316604482015260648101829052610fae9085906323b872dd60e01b90608401610f3f565b50505050565b6000818310610f0c5781610353565b6000611018826040518060400160405280602081526020017f5361666545524332303a206c6f772d6c6576656c2063616c6c206661696c6564815250856001600160a01b03166110959092919063ffffffff16565b805190915015610a18578080602001905181019061103691906112a7565b610a185760405162461bcd60e51b815260206004820152602a60248201527f5361666545524332303a204552433230206f7065726174696f6e20646964206e6044820152691bdd081cdd58d8d9595960b21b60648201526084016103a6565b60606110a484846000856110ae565b90505b9392505050565b60608247101561110f5760405162461bcd60e51b815260206004820152602660248201527f416464726573733a20696e73756666696369656e742062616c616e636520666f6044820152651c8818d85b1b60d21b60648201526084016103a6565b843b61115d5760405162461bcd60e51b815260206004820152601d60248201527f416464726573733a2063616c6c20746f206e6f6e2d636f6e747261637400000060448201526064016103a6565b600080866001600160a01b0316858760405161117991906112f1565b60006040518083038185875af1925050503d80600081146111b6576040519150601f19603f3d011682016040523d82523d6000602084013e6111bb565b606091505b50915091506111cb8282866111d6565b979650505050505050565b606083156111e55750816110a7565b8251156111f55782518084602001fd5b8160405162461bcd60e51b81526004016103a69190611350565b80356001600160a01b038116811461122657600080fd5b919050565b60006020828403121561123d57600080fd5b6103538261120f565b6000806040838503121561125957600080fd5b6112628361120f565b9150602083013561127281611498565b809150509250929050565b6000806040838503121561129057600080fd5b6112998361120f565b946020939093013593505050565b6000602082840312156112b957600080fd5b81516110a781611498565b6000602082840312156112d657600080fd5b5051919050565b600381106112ed576112ed611482565b9052565b6000825161130381846020870161142a565b9190910192915050565b6020810161035682846112dd565b6040810161132982856112dd565b8260208301529392505050565b602081016002831061134a5761134a611482565b91905290565b602081526000825180602084015261136f81604085016020870161142a565b601f01601f19169190910160400192915050565b60208082526018908201527f4e6f7420696e20496e697469616c697a65642073746174650000000000000000604082015260600190565b600082198211156113cd576113cd61146c565b500190565b6000826113ef57634e487b7160e01b600052601260045260246000fd5b500490565b600081600019048311821515161561140e5761140e61146c565b500290565b6000828210156114255761142561146c565b500390565b60005b8381101561144557818101518382015260200161142d565b83811115610fae5750506000910152565b634e487b7160e01b600052600160045260246000fd5b634e487b7160e01b600052601160045260246000fd5b634e487b7160e01b600052602160045260246000fd5b80151581146114a657600080fd5b5056fea264697066735822122007ad4e7dd3c277771d6a8ee43ad7c9e5c3f75ff95359d1df5b18a9f0ef5d569f64736f6c63430008070033",
  "linkReferences": {},
  "deployedLinkReferences": {}
}