{
  "_format": "hh-sol-artifact-1",
  "contractName": "TokenLock",
  "sourceName": "contracts/TokenLock.sol",
  "abi": [
    {
      "inputs": [
        {
          "internalType": "contract IERC20",
          "name": "token_",
          "type": "address"
        },
        {
          "internalType": "uint256",
          "name": "startTime_",
          "type": "uint256"
        },
        {
          "internalType": "uint256",
          "name": "vestingPeriod_",
          "type": "uint256"
        },
        {
          "internalType": "uint256",
          "name": "cliffPeriod_",
          "type": "uint256"
        },
        {
          "internalType": "uint256",
          "name": "initialReleaseFraction_",
          "type": "uint256"
        },
        {
          "internalType": "address[]",
          "name": "wallets_",
          "type": "address[]"
        },
        {
          "internalType": "uint128[]",
          "name": "amounts_",
          "type": "uint128[]"
        }
      ],
      "stateMutability": "nonpayable",
      "type": "constructor"
    },
    {
      "anonymous": false,
      "inputs": [],
      "name": "LogFunded",
      "type": "event"
    },
    {
      "anonymous": false,
      "inputs": [
        {
          "indexed": false,
          "internalType": "uint256",
          "name": "totalLockedAmount",
          "type": "uint256"
        }
      ],
      "name": "LogInitialized",
      "type": "event"
    },
    {
      "anonymous": false,
      "inputs": [
        {
          "indexed": false,
          "internalType": "address",
          "name": "wallet",
          "type": "address"
        },
        {
          "indexed": false,
          "internalType": "uint256",
          "name": "amount",
          "type": "uint256"
        }
      ],
      "name": "LogLock",
      "type": "event"
    },
    {
      "anonymous": false,
      "inputs": [
        {
          "indexed": true,
          "internalType": "address",
          "name": "sender",
          "type": "address"
        },
        {
          "indexed": false,
          "internalType": "uint256",
          "name": "amount",
          "type": "uint256"
        }
      ],
      "name": "LogRelease",
      "type": "event"
    },
    {
      "inputs": [],
      "name": "cliffPeriod",
      "outputs": [
        {
          "internalType": "uint256",
          "name": "",
          "type": "uint256"
        }
      ],
      "stateMutability": "view",
      "type": "function"
    },
    {
      "inputs": [],
      "name": "fund",
      "outputs": [],
      "stateMutability": "nonpayable",
      "type": "function"
    },
    {
      "inputs": [],
      "name": "initialReleaseFraction",
      "outputs": [
        {
          "internalType": "uint256",
          "name": "",
          "type": "uint256"
        }
      ],
      "stateMutability": "view",
      "type": "function"
    },
    {
      "inputs": [],
      "name": "release",
      "outputs": [],
      "stateMutability": "nonpayable",
      "type": "function"
    },
    {
      "inputs": [],
      "name": "startTime",
      "outputs": [
        {
          "internalType": "uint256",
          "name": "",
          "type": "uint256"
        }
      ],
      "stateMutability": "view",
      "type": "function"
    },
    {
      "inputs": [],
      "name": "state",
      "outputs": [
        {
          "internalType": "enum TokenLock.State",
          "name": "",
          "type": "uint8"
        }
      ],
      "stateMutability": "view",
      "type": "function"
    },
    {
      "inputs": [],
      "name": "token",
      "outputs": [
        {
          "internalType": "contract IERC20",
          "name": "",
          "type": "address"
        }
      ],
      "stateMutability": "view",
      "type": "function"
    },
    {
      "inputs": [
        {
          "internalType": "address",
          "name": "sender",
          "type": "address"
        },
        {
          "internalType": "uint256",
          "name": "timestamp",
          "type": "uint256"
        }
      ],
      "name": "tokensVested",
      "outputs": [
        {
          "internalType": "uint256",
          "name": "vestedTokens",
          "type": "uint256"
        }
      ],
      "stateMutability": "view",
      "type": "function"
    },
    {
      "inputs": [],
      "name": "totalLockedTokens",
      "outputs": [
        {
          "internalType": "uint256",
          "name": "",
          "type": "uint256"
        }
      ],
      "stateMutability": "view",
      "type": "function"
    },
    {
      "inputs": [
        {
          "internalType": "address",
          "name": "sender",
          "type": "address"
        }
      ],
      "name": "totalTokensOf",
      "outputs": [
        {
          "internalType": "uint256",
          "name": "",
          "type": "uint256"
        }
      ],
      "stateMutability": "view",
      "type": "function"
    },
    {
      "inputs": [
        {
          "internalType": "address",
          "name": "sender",
          "type": "address"
        }
      ],
      "name": "unlockedTokensOf",
      "outputs": [
        {
          "internalType": "uint256",
          "name": "",
          "type": "uint256"
        }
      ],
      "stateMutability": "view",
      "type": "function"
    },
    {
      "inputs": [],
      "name": "vestingPeriod",
      "outputs": [
        {
          "internalType": "uint256",
          "name": "",
          "type": "uint256"
        }
      ],
      "stateMutability": "view",
      "type": "function"
    }
  ],
  "bytecode": "0x6101406040523480156200001257600080fd5b506040516200160138038062001601833981016040819052620000359162000645565b80518251146200009b5760405162461bcd60e51b815260206004820152602660248201527f6e756d626572206f6620656c656d656e747320696e206c69737473206d757374604482015265040dac2e8c6d60d31b60648201526084015b60405180910390fd5b60008511620000fb5760405162461bcd60e51b815260206004820152602560248201527f76657374696e67506572696f645f206d75737420626520677265617465722074604482015264068616e20360dc1b606482015260840162000092565b6200010a62278d0086620007dd565b156200016d5760405162461bcd60e51b815260206004820152602b60248201527f76657374696e67506572696f645f206d75737420626520646976697369626c6560448201526a206279203330206461797360a81b606482015260840162000092565b6200017c62278d0085620007dd565b15620001dd5760405162461bcd60e51b815260206004820152602960248201527f636c696666506572696f645f206d75737420626520646976697369626c65206260448201526879203330206461797360b81b606482015260840162000092565b848410620002445760405162461bcd60e51b815260206004820152602d60248201527f636c696666506572696f645f206d757374206265206c657373207468616e207660448201526c657374696e67506572696f645f60981b606482015260840162000092565b670de0b6b3a7640000831115620002c45760405162461bcd60e51b815260206004820152603460248201527f696e697469616c52656c656173654672616374696f6e5f206d7573742062652060448201527f696e2072616e6765203c302c2031302a2a31383e000000000000000000000000606482015260840162000092565b600083118015620002d55750600084115b156200034a5760405162461bcd60e51b815260206004820152603760248201527f636c69666620706572696f6420616e6420696e697469616c2072656c6561736560448201527f2063616e6e6f742062652073657420746f676574686572000000000000000000606482015260840162000092565b6001600160601b0319606088901b1660805260a086905260c085905260e08490526101008390526000805b83518110156200056c5760008085838151811062000397576200039762000800565b60200260200101516001600160a01b03166001600160a01b0316815260200190815260200160002060000154600014620004265760405162461bcd60e51b815260206004820152602960248201527f4475706c69636174657320696e206c697374206f662077616c6c657473206e6f6044820152681d08185b1b1bddd95960ba1b606482015260840162000092565b8281815181106200043b576200043b62000800565b60200260200101516001600160801b031660008086848151811062000464576200046462000800565b60200260200101516001600160a01b03166001600160a01b0316815260200190815260200160002060000181905550828181518110620004a857620004a862000800565b60200260200101516001600160801b031682620004c69190620007b6565b91507fd2d8029b590b213926d1942da16c1539e0cb768814328fbf3bb1ab943c4bd4b2848281518110620004fe57620004fe62000800565b60200260200101518483815181106200051b576200051b62000800565b60200260200101516040516200054f9291906001600160a01b039290921682526001600160801b0316602082015260400190565b60405180910390a162000564600182620007b6565b905062000375565b506101208190526040518181527f0c914d3ab4f39f6498ee2eb2fb7519e0ae490fe97cb6daad6fabda99d740d1489060200160405180910390a1505050505050505062000845565b600082601f830112620005c657600080fd5b81516020620005df620005d98362000790565b6200075d565b80838252828201915082860187848660051b89010111156200060057600080fd5b6000805b86811015620006375782516001600160801b038116811462000624578283fd5b8552938501939185019160010162000604565b509198975050505050505050565b600080600080600080600060e0888a0312156200066157600080fd5b87516200066e816200082c565b60208981015160408b015160608c015160808d015160a08e0151959c50929a5090985096509450906001600160401b0380821115620006ac57600080fd5b818b0191508b601f830112620006c157600080fd5b8151620006d2620005d98262000790565b8082825285820191508585018f878560051b8801011115620006f357600080fd5b600095505b83861015620007235780516200070e816200082c565b835260019590950194918601918601620006f8565b5060c08e015190975094505050808311156200073e57600080fd5b50506200074e8a828b01620005b4565b91505092959891949750929550565b604051601f8201601f191681016001600160401b038111828210171562000788576200078862000816565b604052919050565b60006001600160401b03821115620007ac57620007ac62000816565b5060051b60200190565b60008219821115620007d857634e487b7160e01b600052601160045260246000fd5b500190565b600082620007fb57634e487b7160e01b600052601260045260246000fd5b500690565b634e487b7160e01b600052603260045260246000fd5b634e487b7160e01b600052604160045260246000fd5b6001600160a01b03811681146200084257600080fd5b50565b60805160601c60a05160c05160e0516101005161012051610d16620008eb600039600081816101f3015281816104f30152610521015260008181610107015261076701526000818160e101526106b501526000818161015901528181610731015261079b01526000818161017f015281816106d6015261070a015260008181610224015281816103c1015281816104750152818161054a01526106580152610d166000f3fe608060405234801561001057600080fd5b50600436106100b45760003560e01c806386d1a69f1161007157806386d1a69f146101a3578063b60d4288146101ad578063b7bc74f9146101b5578063c19d93fb146101de578063f5c476f9146101f1578063fc0c546a1461021757600080fd5b80631325956a146100b95780632f661946146100df5780634659287c14610105578063623decaa1461012b5780637313ee5a1461015757806378e979251461017d575b600080fd5b6100cc6100c7366004610b26565b61024e565b6040519081526020015b60405180910390f35b7f00000000000000000000000000000000000000000000000000000000000000006100cc565b7f00000000000000000000000000000000000000000000000000000000000000006100cc565b6100cc610139366004610b0b565b6001600160a01b031660009081526020819052604090206001015490565b7f00000000000000000000000000000000000000000000000000000000000000006100cc565b7f00000000000000000000000000000000000000000000000000000000000000006100cc565b6101ab61027a565b005b6101ab6103ed565b6100cc6101c3366004610b0b565b6001600160a01b031660009081526020819052604090205490565b60015460ff166040516100d69190610ba7565b7f00000000000000000000000000000000000000000000000000000000000000006100cc565b6040516001600160a01b037f00000000000000000000000000000000000000000000000000000000000000001681526020016100d6565b6001600160a01b03821660009081526020819052604081205461027190836106ae565b90505b92915050565b6001805460ff168181111561029157610291610cca565b146102e35760405162461bcd60e51b815260206004820152601860248201527f4e6f7420696e20496e697469616c697a6564207374617465000000000000000060448201526064015b60405180910390fd5b33600081815260208181526040808320815180830190925280548083526001909101549282018390529092919061031a90426106ae565b6103249190610c5b565b90508082602001516103369190610c02565b8251101561034657610346610c9e565b6001600160a01b03831660009081526020819052604081206001018054839290610371908490610c02565b90915550506040518181526001600160a01b038416907f4870984673bc1d83230a9897f845d74cfd161d5f556e181d08c56ec6acc92bac9060200160405180910390a26103e86001600160a01b037f00000000000000000000000000000000000000000000000000000000000000001684836107ec565b505050565b60006001805460ff169081111561040657610406610cca565b146104495760405162461bcd60e51b81526020600482015260136024820152724e6f7420696e2046756e64656420737461746560681b60448201526064016102da565b6001805460ff1916811790556040516370a0823160e01b81523060048201526000906001600160a01b037f000000000000000000000000000000000000000000000000000000000000000016906370a082319060240160206040518083038186803b1580156104b757600080fd5b505afa1580156104cb573d6000803e3d6000fd5b505050506040513d601f19601f820116820180604052508101906104ef9190610b72565b90507f0000000000000000000000000000000000000000000000000000000000000000811015610682576000610545827f0000000000000000000000000000000000000000000000000000000000000000610c5b565b9050807f0000000000000000000000000000000000000000000000000000000000000000604051636eb1769f60e11b81523360048201523060248201526001600160a01b03919091169063dd62ed3e9060440160206040518083038186803b1580156105b057600080fd5b505afa1580156105c4573d6000803e3d6000fd5b505050506040513d601f19601f820116820180604052508101906105e89190610b72565b101561064b5760405162461bcd60e51b815260206004820152602c60248201527f4e6f2073756666696369656e7420616c6c6f77616e636520746f2066756e642060448201526b1d1a194818dbdb9d1c9858dd60a21b60648201526084016102da565b6106806001600160a01b037f00000000000000000000000000000000000000000000000000000000000000001633308461084f565b505b6040517ffcf50d5f3e0ec1706ab6464f948aba802c0b96a54a4e0b0186047a25fc1b749890600090a150565b60006106fa7f00000000000000000000000000000000000000000000000000000000000000007f0000000000000000000000000000000000000000000000000000000000000000610c02565b821061027457600061075561072f7f000000000000000000000000000000000000000000000000000000000000000085610c5b565b7f000000000000000000000000000000000000000000000000000000000000000061088d565b90506000670de0b6b3a764000061078c7f000000000000000000000000000000000000000000000000000000000000000087610c3c565b6107969190610c1a565b9050807f0000000000000000000000000000000000000000000000000000000000000000836107c58389610c5b565b6107cf9190610c3c565b6107d99190610c1a565b6107e39190610c02565b95945050505050565b6040516001600160a01b0383166024820152604481018290526103e890849063a9059cbb60e01b906064015b60408051601f198184030181529190526020810180516001600160e01b03166001600160e01b0319909316929092179091526108a3565b6040516001600160a01b03808516602483015283166044820152606481018290526108879085906323b872dd60e01b90608401610818565b50505050565b600081831061089c5781610271565b5090919050565b60006108f8826040518060400160405280602081526020017f5361666545524332303a206c6f772d6c6576656c2063616c6c206661696c6564815250856001600160a01b03166109759092919063ffffffff16565b8051909150156103e857808060200190518101906109169190610b50565b6103e85760405162461bcd60e51b815260206004820152602a60248201527f5361666545524332303a204552433230206f7065726174696f6e20646964206e6044820152691bdd081cdd58d8d9595960b21b60648201526084016102da565b6060610984848460008561098e565b90505b9392505050565b6060824710156109ef5760405162461bcd60e51b815260206004820152602660248201527f416464726573733a20696e73756666696369656e742062616c616e636520666f6044820152651c8818d85b1b60d21b60648201526084016102da565b843b610a3d5760405162461bcd60e51b815260206004820152601d60248201527f416464726573733a2063616c6c20746f206e6f6e2d636f6e747261637400000060448201526064016102da565b600080866001600160a01b03168587604051610a599190610b8b565b60006040518083038185875af1925050503d8060008114610a96576040519150601f19603f3d011682016040523d82523d6000602084013e610a9b565b606091505b5091509150610aab828286610ab6565b979650505050505050565b60608315610ac5575081610987565b825115610ad55782518084602001fd5b8160405162461bcd60e51b81526004016102da9190610bcf565b80356001600160a01b0381168114610b0657600080fd5b919050565b600060208284031215610b1d57600080fd5b61027182610aef565b60008060408385031215610b3957600080fd5b610b4283610aef565b946020939093013593505050565b600060208284031215610b6257600080fd5b8151801515811461098757600080fd5b600060208284031215610b8457600080fd5b5051919050565b60008251610b9d818460208701610c72565b9190910192915050565b6020810160028310610bc957634e487b7160e01b600052602160045260246000fd5b91905290565b6020815260008251806020840152610bee816040850160208701610c72565b601f01601f19169190910160400192915050565b60008219821115610c1557610c15610cb4565b500190565b600082610c3757634e487b7160e01b600052601260045260246000fd5b500490565b6000816000190483118215151615610c5657610c56610cb4565b500290565b600082821015610c6d57610c6d610cb4565b500390565b60005b83811015610c8d578181015183820152602001610c75565b838111156108875750506000910152565b634e487b7160e01b600052600160045260246000fd5b634e487b7160e01b600052601160045260246000fd5b634e487b7160e01b600052602160045260246000fdfea264697066735822122025566e5c6b94fd8d7731646e77c752445b72c0d9ab8a3853e5c7f3c44e74300764736f6c63430008070033",
  "linkReferences": {},
  "deployedLinkReferences": {}
}