{
  "_format": "hh-sol-artifact-1",
  "contractName": "WFAIRToken",
  "sourceName": "contracts/WFAIRToken.sol",
  "abi": [
    {
      "inputs": [
        {
          "internalType": "uint256",
          "name": "totalSupply_",
          "type": "uint256"
        }
      ],
      "stateMutability": "nonpayable",
      "type": "constructor"
    },
    {
      "anonymous": false,
      "inputs": [
        {
          "indexed": true,
          "internalType": "address",
          "name": "owner",
          "type": "address"
        },
        {
          "indexed": true,
          "internalType": "address",
          "name": "spender",
          "type": "address"
        },
        {
          "indexed": false,
          "internalType": "uint256",
          "name": "value",
          "type": "uint256"
        }
      ],
      "name": "Approval",
      "type": "event"
    },
    {
      "anonymous": false,
      "inputs": [
        {
          "indexed": true,
          "internalType": "address",
          "name": "from",
          "type": "address"
        },
        {
          "indexed": true,
          "internalType": "address",
          "name": "to",
          "type": "address"
        },
        {
          "indexed": false,
          "internalType": "uint256",
          "name": "value",
          "type": "uint256"
        }
      ],
      "name": "Transfer",
      "type": "event"
    },
    {
      "inputs": [
        {
          "internalType": "address",
          "name": "owner",
          "type": "address"
        },
        {
          "internalType": "address",
          "name": "spender",
          "type": "address"
        }
      ],
      "name": "allowance",
      "outputs": [
        {
          "internalType": "uint256",
          "name": "",
          "type": "uint256"
        }
      ],
      "stateMutability": "view",
      "type": "function"
    },
    {
      "inputs": [
        {
          "internalType": "address",
          "name": "spender",
          "type": "address"
        },
        {
          "internalType": "uint256",
          "name": "amount",
          "type": "uint256"
        }
      ],
      "name": "approve",
      "outputs": [
        {
          "internalType": "bool",
          "name": "",
          "type": "bool"
        }
      ],
      "stateMutability": "nonpayable",
      "type": "function"
    },
    {
      "inputs": [
        {
          "internalType": "address",
          "name": "spender",
          "type": "address"
        },
        {
          "internalType": "uint256",
          "name": "amount",
          "type": "uint256"
        }
      ],
      "name": "approveAndCall",
      "outputs": [
        {
          "internalType": "bool",
          "name": "",
          "type": "bool"
        }
      ],
      "stateMutability": "nonpayable",
      "type": "function"
    },
    {
      "inputs": [
        {
          "internalType": "address",
          "name": "spender",
          "type": "address"
        },
        {
          "internalType": "uint256",
          "name": "amount",
          "type": "uint256"
        },
        {
          "internalType": "bytes",
          "name": "data",
          "type": "bytes"
        }
      ],
      "name": "approveAndCall",
      "outputs": [
        {
          "internalType": "bool",
          "name": "",
          "type": "bool"
        }
      ],
      "stateMutability": "nonpayable",
      "type": "function"
    },
    {
      "inputs": [
        {
          "internalType": "address",
          "name": "account",
          "type": "address"
        }
      ],
      "name": "balanceOf",
      "outputs": [
        {
          "internalType": "uint256",
          "name": "",
          "type": "uint256"
        }
      ],
      "stateMutability": "view",
      "type": "function"
    },
    {
      "inputs": [],
      "name": "decimals",
      "outputs": [
        {
          "internalType": "uint8",
          "name": "",
          "type": "uint8"
        }
      ],
      "stateMutability": "view",
      "type": "function"
    },
    {
      "inputs": [
        {
          "internalType": "address",
          "name": "spender",
          "type": "address"
        },
        {
          "internalType": "uint256",
          "name": "subtractedValue",
          "type": "uint256"
        }
      ],
      "name": "decreaseAllowance",
      "outputs": [
        {
          "internalType": "bool",
          "name": "",
          "type": "bool"
        }
      ],
      "stateMutability": "nonpayable",
      "type": "function"
    },
    {
      "inputs": [
        {
          "internalType": "address",
          "name": "spender",
          "type": "address"
        },
        {
          "internalType": "uint256",
          "name": "addedValue",
          "type": "uint256"
        }
      ],
      "name": "increaseAllowance",
      "outputs": [
        {
          "internalType": "bool",
          "name": "",
          "type": "bool"
        }
      ],
      "stateMutability": "nonpayable",
      "type": "function"
    },
    {
      "inputs": [],
      "name": "name",
      "outputs": [
        {
          "internalType": "string",
          "name": "",
          "type": "string"
        }
      ],
      "stateMutability": "view",
      "type": "function"
    },
    {
      "inputs": [
        {
          "internalType": "bytes4",
          "name": "interfaceId",
          "type": "bytes4"
        }
      ],
      "name": "supportsInterface",
      "outputs": [
        {
          "internalType": "bool",
          "name": "",
          "type": "bool"
        }
      ],
      "stateMutability": "view",
      "type": "function"
    },
    {
      "inputs": [],
      "name": "symbol",
      "outputs": [
        {
          "internalType": "string",
          "name": "",
          "type": "string"
        }
      ],
      "stateMutability": "view",
      "type": "function"
    },
    {
      "inputs": [],
      "name": "totalSupply",
      "outputs": [
        {
          "internalType": "uint256",
          "name": "",
          "type": "uint256"
        }
      ],
      "stateMutability": "view",
      "type": "function"
    },
    {
      "inputs": [
        {
          "internalType": "address",
          "name": "recipient",
          "type": "address"
        },
        {
          "internalType": "uint256",
          "name": "amount",
          "type": "uint256"
        }
      ],
      "name": "transfer",
      "outputs": [
        {
          "internalType": "bool",
          "name": "",
          "type": "bool"
        }
      ],
      "stateMutability": "nonpayable",
      "type": "function"
    },
    {
      "inputs": [
        {
          "internalType": "address",
          "name": "recipient",
          "type": "address"
        },
        {
          "internalType": "uint256",
          "name": "amount",
          "type": "uint256"
        }
      ],
      "name": "transferAndCall",
      "outputs": [
        {
          "internalType": "bool",
          "name": "",
          "type": "bool"
        }
      ],
      "stateMutability": "nonpayable",
      "type": "function"
    },
    {
      "inputs": [
        {
          "internalType": "address",
          "name": "recipient",
          "type": "address"
        },
        {
          "internalType": "uint256",
          "name": "amount",
          "type": "uint256"
        },
        {
          "internalType": "bytes",
          "name": "data",
          "type": "bytes"
        }
      ],
      "name": "transferAndCall",
      "outputs": [
        {
          "internalType": "bool",
          "name": "",
          "type": "bool"
        }
      ],
      "stateMutability": "nonpayable",
      "type": "function"
    },
    {
      "inputs": [
        {
          "internalType": "address",
          "name": "sender",
          "type": "address"
        },
        {
          "internalType": "address",
          "name": "recipient",
          "type": "address"
        },
        {
          "internalType": "uint256",
          "name": "amount",
          "type": "uint256"
        }
      ],
      "name": "transferFrom",
      "outputs": [
        {
          "internalType": "bool",
          "name": "",
          "type": "bool"
        }
      ],
      "stateMutability": "nonpayable",
      "type": "function"
    },
    {
      "inputs": [
        {
          "internalType": "address",
          "name": "sender",
          "type": "address"
        },
        {
          "internalType": "address",
          "name": "recipient",
          "type": "address"
        },
        {
          "internalType": "uint256",
          "name": "amount",
          "type": "uint256"
        },
        {
          "internalType": "bytes",
          "name": "data",
          "type": "bytes"
        }
      ],
      "name": "transferFromAndCall",
      "outputs": [
        {
          "internalType": "bool",
          "name": "",
          "type": "bool"
        }
      ],
      "stateMutability": "nonpayable",
      "type": "function"
    },
    {
      "inputs": [
        {
          "internalType": "address",
          "name": "sender",
          "type": "address"
        },
        {
          "internalType": "address",
          "name": "recipient",
          "type": "address"
        },
        {
          "internalType": "uint256",
          "name": "amount",
          "type": "uint256"
        }
      ],
      "name": "transferFromAndCall",
      "outputs": [
        {
          "internalType": "bool",
          "name": "",
          "type": "bool"
        }
      ],
      "stateMutability": "nonpayable",
      "type": "function"
    }
  ],
  "bytecode": "0x60806040523480156200001157600080fd5b50604051620011e1380380620011e1833981016040819052620000349162000244565b604080518082018252600b81526a2ba320a4a9102a37b5b2b760a91b6020808301918252835180850190945260058452642ba320a4a960d91b90840152815191929162000084916003916200019e565b5080516200009a9060049060208401906200019e565b505050620000af3382620000b660201b60201c565b50620002c2565b6001600160a01b038216620001115760405162461bcd60e51b815260206004820152601f60248201527f45524332303a206d696e7420746f20746865207a65726f206164647265737300604482015260640160405180910390fd5b80600260008282546200012591906200025e565b90915550506001600160a01b03821660009081526020819052604081208054839290620001549084906200025e565b90915550506040518181526001600160a01b038316906000907fddf252ad1be2c89b69c2b068fc378daa952ba7f163c4a11628f55a4df523b3ef9060200160405180910390a35050565b828054620001ac9062000285565b90600052602060002090601f016020900481019282620001d057600085556200021b565b82601f10620001eb57805160ff19168380011785556200021b565b828001600101855582156200021b579182015b828111156200021b578251825591602001919060010190620001fe565b50620002299291506200022d565b5090565b5b808211156200022957600081556001016200022e565b6000602082840312156200025757600080fd5b5051919050565b600082198211156200028057634e487b7160e01b600052601160045260246000fd5b500190565b600181811c908216806200029a57607f821691505b60208210811415620002bc57634e487b7160e01b600052602260045260246000fd5b50919050565b610f0f80620002d26000396000f3fe608060405234801561001057600080fd5b50600436106101165760003560e01c80634000aea0116100a2578063a9059cbb11610071578063a9059cbb1461022f578063c1d34b8914610242578063cae9ca5114610255578063d8fbe99414610268578063dd62ed3e1461027b57600080fd5b80634000aea0146101d857806370a08231146101eb57806395d89b4114610214578063a457c2d71461021c57600080fd5b806318160ddd116100e957806318160ddd1461017e57806323b872dd14610190578063313ce567146101a35780633177029f146101b257806339509351146101c557600080fd5b806301ffc9a71461011b57806306fdde0314610143578063095ea7b3146101585780631296ee621461016b575b600080fd5b61012e610129366004610cfc565b6102b4565b60405190151581526020015b60405180910390f35b61014b6102eb565b60405161013a9190610df0565b61012e610166366004610c7b565b61037d565b61012e610179366004610c7b565b610393565b6002545b60405190815260200161013a565b61012e61019e366004610bd7565b6103b6565b6040516012815260200161013a565b61012e6101c0366004610c7b565b610465565b61012e6101d3366004610c7b565b610481565b61012e6101e6366004610ca5565b6104bd565b6101826101f9366004610b89565b6001600160a01b031660009081526020819052604090205490565b61014b6104fc565b61012e61022a366004610c7b565b61050b565b61012e61023d366004610c7b565b61059a565b61012e610250366004610c13565b6105a7565b61012e610263366004610ca5565b6105e5565b61012e610276366004610bd7565b610657565b610182610289366004610ba4565b6001600160a01b03918216600090815260016020908152604080832093909416825291909152205490565b60006001600160e01b0319821663b0202a1160e01b14806102e557506301ffc9a760e01b6001600160e01b03198316145b92915050565b6060600380546102fa90610e6f565b80601f016020809104026020016040519081016040528092919081815260200182805461032690610e6f565b80156103735780601f1061034857610100808354040283529160200191610373565b820191906000526020600020905b81548152906001019060200180831161035657829003601f168201915b5050505050905090565b600061038a338484610674565b50600192915050565b60006103af8383604051806020016040528060008152506104bd565b9392505050565b60006103c3848484610798565b6001600160a01b03841660009081526001602090815260408083203384529091529020548281101561044d5760405162461bcd60e51b815260206004820152602860248201527f45524332303a207472616e7366657220616d6f756e74206578636565647320616044820152676c6c6f77616e636560c01b60648201526084015b60405180910390fd5b61045a8533858403610674565b506001949350505050565b60006103af8383604051806020016040528060008152506105e5565b3360008181526001602090815260408083206001600160a01b0387168452909152812054909161038a9185906104b8908690610e49565b610674565b60006104c9848461059a565b506104d633858585610967565b6104f25760405162461bcd60e51b815260040161044490610e03565b5060019392505050565b6060600480546102fa90610e6f565b3360009081526001602090815260408083206001600160a01b03861684529091528120548281101561058d5760405162461bcd60e51b815260206004820152602560248201527f45524332303a2064656372656173656420616c6c6f77616e63652062656c6f77604482015264207a65726f60d81b6064820152608401610444565b6104f23385858403610674565b600061038a338484610798565b60006105b48585856103b6565b506105c185858585610967565b61045a5760405162461bcd60e51b815260040161044490610e03565b949350505050565b60006105f1848461037d565b506105fd848484610a25565b6104f25760405162461bcd60e51b815260206004820152602560248201527f455243313336333a205f636865636b416e6443616c6c417070726f7665207265604482015264766572747360d81b6064820152608401610444565b60006105dd848484604051806020016040528060008152506105a7565b6001600160a01b0383166106d65760405162461bcd60e51b8152602060048201526024808201527f45524332303a20617070726f76652066726f6d20746865207a65726f206164646044820152637265737360e01b6064820152608401610444565b6001600160a01b0382166107375760405162461bcd60e51b815260206004820152602260248201527f45524332303a20617070726f766520746f20746865207a65726f206164647265604482015261737360f01b6064820152608401610444565b6001600160a01b0383811660008181526001602090815260408083209487168084529482529182902085905590518481527f8c5be1e5ebec7d5bd14f71427d1e84f3dd0314c0f7b2291e5b200ac8c7c3b925910160405180910390a3505050565b6001600160a01b0383166107fc5760405162461bcd60e51b815260206004820152602560248201527f45524332303a207472616e736665722066726f6d20746865207a65726f206164604482015264647265737360d81b6064820152608401610444565b6001600160a01b03821661085e5760405162461bcd60e51b815260206004820152602360248201527f45524332303a207472616e7366657220746f20746865207a65726f206164647260448201526265737360e81b6064820152608401610444565b6001600160a01b038316600090815260208190526040902054818110156108d65760405162461bcd60e51b815260206004820152602660248201527f45524332303a207472616e7366657220616d6f756e7420657863656564732062604482015265616c616e636560d01b6064820152608401610444565b6001600160a01b0380851660009081526020819052604080822085850390559185168152908120805484929061090d908490610e49565b92505081905550826001600160a01b0316846001600160a01b03167fddf252ad1be2c89b69c2b068fc378daa952ba7f163c4a11628f55a4df523b3ef8460405161095991815260200190565b60405180910390a350505050565b60006001600160a01b0384163b610980575060006105dd565b604051632229f29760e21b81526000906001600160a01b038616906388a7ca5c906109b59033908a9089908990600401610d83565b602060405180830381600087803b1580156109cf57600080fd5b505af11580156109e3573d6000803e3d6000fd5b505050506040513d601f19601f82011682018060405250810190610a079190610d19565b6001600160e01b031916632229f29760e21b14915050949350505050565b60006001600160a01b0384163b610a3e575060006103af565b6040516307b04a2d60e41b81526000906001600160a01b03861690637b04a2d090610a7190339088908890600401610dc0565b602060405180830381600087803b158015610a8b57600080fd5b505af1158015610a9f573d6000803e3d6000fd5b505050506040513d601f19601f82011682018060405250810190610ac39190610d19565b6001600160e01b0319166307b04a2d60e41b149150509392505050565b80356001600160a01b0381168114610af757600080fd5b919050565b600082601f830112610b0d57600080fd5b813567ffffffffffffffff80821115610b2857610b28610eaa565b604051601f8301601f19908116603f01168101908282118183101715610b5057610b50610eaa565b81604052838152866020858801011115610b6957600080fd5b836020870160208301376000602085830101528094505050505092915050565b600060208284031215610b9b57600080fd5b6103af82610ae0565b60008060408385031215610bb757600080fd5b610bc083610ae0565b9150610bce60208401610ae0565b90509250929050565b600080600060608486031215610bec57600080fd5b610bf584610ae0565b9250610c0360208501610ae0565b9150604084013590509250925092565b60008060008060808587031215610c2957600080fd5b610c3285610ae0565b9350610c4060208601610ae0565b925060408501359150606085013567ffffffffffffffff811115610c6357600080fd5b610c6f87828801610afc565b91505092959194509250565b60008060408385031215610c8e57600080fd5b610c9783610ae0565b946020939093013593505050565b600080600060608486031215610cba57600080fd5b610cc384610ae0565b925060208401359150604084013567ffffffffffffffff811115610ce657600080fd5b610cf286828701610afc565b9150509250925092565b600060208284031215610d0e57600080fd5b81356103af81610ec0565b600060208284031215610d2b57600080fd5b81516103af81610ec0565b6000815180845260005b81811015610d5c57602081850181015186830182015201610d40565b81811115610d6e576000602083870101525b50601f01601f19169290920160200192915050565b6001600160a01b0385811682528416602082015260408101839052608060608201819052600090610db690830184610d36565b9695505050505050565b60018060a01b0384168152826020820152606060408201526000610de76060830184610d36565b95945050505050565b6020815260006103af6020830184610d36565b60208082526026908201527f455243313336333a205f636865636b416e6443616c6c5472616e73666572207260408201526565766572747360d01b606082015260800190565b60008219821115610e6a57634e487b7160e01b600052601160045260246000fd5b500190565b600181811c90821680610e8357607f821691505b60208210811415610ea457634e487b7160e01b600052602260045260246000fd5b50919050565b634e487b7160e01b600052604160045260246000fd5b6001600160e01b031981168114610ed657600080fd5b5056fea2646970667358221220f23adb095c44c97b7ea4c2099568b1e5c7002c9ed9137875cf108beeb6b50c1a64736f6c63430008070033",
  "linkReferences": {},
  "deployedLinkReferences": {}
}